:020000040800F2
:10000000C84F00202D020008350200083702000802
:10001000390200083B0200083D0200080000000011
:10002000000000000000000000000000890100083E
:100030004102000800000000CD0100083D13000847
:10004000470200084702000847020008470200086C
:10005000470200084702000847020008470200085C
:10006000470200084702000847020008470200084C
:10007000470200084702000847020008470200083C
:10008000470200084702000847020008470200082C
:10009000470200084702000847020008470200081C
:1000A000470200084702000847020008470200080C
:1000B00047020008470200084702000847020008FC
:1000C00047020008470200084702000847020008EC
:1000D00047020008470200084702000847020008DC
:1000E00047020008470200084702000800F002F833
:1000F00000F03AF80AA090E8000C82448344AAF188
:100100000107DA4501D100F02FF8AFF2090EBAE885
:100110000F0013F0010F18BFFB1A43F0010318473B
:10012000584C0000784C0000103A24BF78C878C1C1
:10013000FAD8520724BF30C830C144BF04680C60ED
:10014000704700000023002400250026103A28BF35
:1001500078C1FBD8520728BF30C148BF0B60704739
:100160001FB51FBD10B510BD00F0D4F81146FFF744
:10017000F7FF01F03FFA00F0F2F803B4FFF7F2FFE7
:1001800003BC00F0F9F80000204B19680868B0E8DB
:10019000F00F80F30988BFF36F8F4FF0000080F3FA
:1001A00011884EF00D0E70470000000006480068F0
:1001B000006880F3088862B661B6BFF34F8FBFF363
:1001C0006F8F00DF00BF00BF08ED00E0EFF3098094
:1001D000BFF36F8F0D4B1A6820E9F00F106008B560
:1001E0004FF0BF0080F3118801F0EAFC4FF00000EF
:1001F00080F31188BDE8084019680868B0E8F00F7E
:1002000080F30988BFF36F8F704700BF5400002050
:10021000EFF311804FF0BF0181F31188704780F335
:1002200011887047EFF30580704700000948804748
:1002300009480047FEE7FEE7FEE7FEE7FEE7FEE7C8
:10024000FEE7FEE7FEE7FEE704480549054A064BE0
:10025000704700005D130008ED000008C849002049
:10026000C84F0020C84B0020C84B002002F0FF03FD
:1002700043EA032242EA024200F005B870477047A1
:1002800070474FF000020429C0F0128010F0030CF8
:1002900000F01B80CCF1040CBCF1020F18BF00F879
:1002A000012BA8BF20F8022BA1EB0C0100F00DB828
:1002B0005FEAC17C24BF00F8012B00F8012B48BF86
:1002C00000F8012B70474FF0000200B5134694462A
:1002D0009646203922BFA0E80C50A0E80C50B1F19E
:1002E0002001BFF4F7AF090728BFA0E80C5048BFB2
:1002F0000CC05DF804EB890028BF40F8042B08BF50
:10030000704748BF20F8022B11F0804F18BF00F84B
:10031000012B7047754600F02BF8AE460500694684
:10032000534620F00700854618B020B5FFF78CFF34
:10033000BDE820404FF000064FF000074FF00008E6
:100340004FF0000B21F00701AC46ACE8C009ACE867
:10035000C009ACE8C009ACE8C0098D46704710B5CB
:100360000446AFF300802046BDE81040FFF705BF0C
:10037000004870476449002001491820ABBEFEE7E1
:1003800026000200704721B1826842F001028260BB
:1003900003E0826822F001028260704700B585B0F8
:1003A0000020009001208DF804008DF805004FF426
:1003B000602002900020039004208DF81000694610
:1003C0001D4800F05BF80723012200211A4800F0C5
:1003D0007DF8072302220121174800F077F8072350
:1003E00003220221144800F071F80723042203219C
:1003F000114800F06BF801210F4800F01FF80121AF
:100400000D48FFF7C0FF0C4800F0BCF800BF0A48D9
:1004100000F029F80028FAD1074800F0C3F800BF1F
:10042000054800F016F80028FAD10121024800F032
:10043000AEF805B000BD00000024014021B1826883
:1004400042F48072826003E0826822F480728260EB
:100450007047014600208A6802F004020AB10120B8
:1004600000E000207047014600208A6802F0080280
:100470000AB1012000E000207047000030B50246BC
:100480000020002350680F4C20400D790C6844EA8E
:1004900005242043506090680B4C2040D1E9025461
:1004A0002C434D7944EA450420439060D06A20F4FF
:1004B00070000C7C641EE4B2234340EA0350D06217
:1004C00030BD0000FFFEF0FFFDF7F1FFF0B5044680
:1004D0000D4600200021092D11DDE068A5F10A0676
:1004E00006EB4607072606FA07F18843A5F10A0638
:1004F00006EB460603FA06F10843E0600CE02069CB
:1005000005EB4507072606FA07F1884305EB450684
:1005100003FA06F108432061072A0FDA606B561EC2
:1005200006EB86071F2606FA07F18843561E06EBE0
:10053000860605FA06F10843606322E00D2A0FDA09
:10054000206BD61F06EB86071F2606FA07F18843A5
:10055000D61F06EB860605FA06F10843206310E075
:10056000E06AA2F10D0606EB86071F2606FA07F1E0
:100570008843A2F10D0606EB860605FA06F108434C
:10058000E062F0BD816841F008018160704721B1EF
:10059000826842F4A002826003E0826822F4A00232
:1005A00082607047816841F00401816070470000FB
:1005B000002500BF0C4800F0BEFA00F0100434B172
:1005C000AC4204D009480078401C0849087007492B
:1005D00008786C22002101F006F8044908702546CD
:1005E000022001F091FAE5E7000C01400B00002029
:1005F00021B1026842F00102026004E002684FF695
:10060000FE731A400260704700B58BB0114800F0CD
:1006100027F8114800901148019000200290012015
:1006200003900020049080200590400006908000F8
:100630000790202008900002099000200A90694647
:10064000044800F0B3F801210248FFF7D1FF0BB0D6
:1006500000BD0000080002404C24014000000020C2
:1006600001684FF6FE721140016000210160416097
:100670008160C1604B49884208D14A4908394968BC
:1006800041F00F01474A083A51608AE04549143168
:10069000884208D143490839496841F0F001414A8C
:1006A000083A51607DE03F492831884208D13D49F0
:1006B0000839496841F470613A4A083A516070E07B
:1006C00038493C31884208D136490839496841F4F3
:1006D0007041344A083A516063E0324950318842EF
:1006E00008D130490839496841F470212D4A083A47
:1006F000516056E02B496431884208D129490839B4
:10070000496841F47001274A083A516049E0254997
:100710007831884208D123490839496841F070612D
:10072000204A083A51603CE01F49884206D1011F27
:10073000096841F00F01021F116032E01A491431BB
:10074000884208D11849091F096841F0F001164A8A
:10075000121F116025E014492831884208D112493E
:10076000091F096841F470610F4A121F116018E0F7
:100770000D493C31884208D10B49091F096841F4F1
:100780007041094A121F11600BE00749503188423D
:1007900007D10549091F096841F47021024A121F57
:1007A00011607047080002400804024010B50022A2
:1007B000026847F6F0739A430C6A8B6823430C690E
:1007C00023434C6923438C692343CC6923434C6AFC
:1007D00023438C6A23431A430260CB6843600B684F
:1007E00083604B68C36010BD8CB000F08DFA192097
:1007F000052300223949009039A000F0DFFD0520D3
:10080000552300223749009035A000F0D7FD00BFE6
:100810000F233C2201213448007800F0B3FE334915
:100820004870084600784978884221D02F4840789F
:100830002E490978401A44B2002C01DD022C04DB59
:10084000002C08DA6042022805DD29480078401CA7
:100850002749087004E026480078401E24490870A3
:10086000234908786C22002100F0BDFE2049087061
:100870001E4840781D4908701D4800781C49497879
:1008800088420DD01A490878032207A900F0AFFD6D
:100890001920052300221149009007A800F08EFDC1
:1008A00013480078124948701248006801F07EFC35
:1008B000C5B2032202A9284600F099FD25208DF833
:1008C0000B000520552300220649009002A800F0E5
:1008D00075FD322001F018F99AE70000340000207D
:1008E000303030002C0000200800002009000020DB
:1008F0000B00002004000020002500BF2C4800F061
:100900001AF9012121EA9026294800F014F96FEA2A
:10091000D02466F35F04012C00D155B1032C01D122
:10092000012D06D0022C01D1032D02D03CB9022D9D
:1009300005D120480078401C1E49087012E00CB90F
:10094000022D0AD0012C01D1032D06D0032C01D198
:10095000022D02D0022C05D125B916480078401E80
:10096000144908703C2201211248007800F03BFE37
:100970001049087025460E4800F0DDF800F002002E
:1009800028B14FF400510C4800F0DBF80CE00020D7
:100990000849087009490870094908700120487021
:1009A0004103054800F0CBF8022001F0ADF8A5E7BF
:1009B000000C014008000020001001400B00002046
:1009C0000900002008B54FF40050ADF800000220E7
:1009D0008DF8020014208DF8030069460D4800F0E0
:1009E0001FF840F61240ADF8000002208DF802001A
:1009F00048208DF803006946074800F011F80120EF
:100A0000ADF8000000208DF803006946034800F0AF
:100A100007F808BD00100140000C0140000801402B
:100A20002DE9F04102460025002600200023002485
:100A3000002791F803C00CF00F0591F803C00CF0EB
:100A4000100CBCF1000F03D091F802C04CEA050570
:100A500091F800C0BCF1000F31D0146800202BE0E9
:100A60004FF0010C0CFA00F3B1F800C00CEA0306D9
:100A70009E4220D183004FF00F0C0CFA03F7BC43C9
:100A800005FA03FC4CEA040491F803C0BCF1280FFA
:100A900006D14FF0010C0CFA00FCC2F814C00AE0B9
:100AA00091F803C0BCF1480F05D14FF0010C0CFACE
:100AB00000FCC2F810C0401C0828D1D31460B1F863
:100AC00000C0BCF1FF0F34DD546800202EE000F1BF
:100AD000080C4FF0010808FA0CF3B1F800C00CEA5A
:100AE00003069E4221D183004FF00F0C0CFA03F74E
:100AF000BC4305FA03FC4CEA040491F803C0BCF1C2
:100B0000280F05D100F1080C08FA0CF8C2F814807F
:100B100091F803C0BCF1480F07D100F1080C4FF069
:100B2000010808FA0CF8C2F81080401C0828CED33F
:100B30005460BDE8F0810146886880B27047416129
:100B400070470161704721B1028842F001020280C2
:100B500004E002884FF6FE731A40028070470000DE
:100B600010B504460B48844209D10121480500F024
:100B7000FFF800214FF4001000F0FAF808E001211E
:100B8000880500F0F5F800214FF4800000F0F0F83F
:100B900010BD00000054004021B1028842F4807270
:100BA000028004E002884FF6FF631A40028070471B
:100BB00021B1028842F40072028004E002884FF6FC
:100BC000FF531A40028070470CB5024600200023F4
:100BD0000193009300920B0F019321F07F41019B41
:100BE0001BB1009B1433009303E0090C009B1833E6
:100BF0000093009B1B680B400BB1012000E000201C
:100C00000CBD00002DE9F04385B004460D460026DA
:100C1000B1460427DFF8CC80A6884FF6C0700640A6
:100C2000684600F0D5F8DDF808802F48B8FBF0F0F2
:100C30001FFA80F946EA0906A68020884FF6FE7161
:100C40000840208000262949286888420CD8286856
:100C50004000B8FBF0F087B2042F00DA04273E43CF
:100C600009F10100208427E0E8884BF6FF718842F3
:100C700006D1286800EB4000B8FBF0F087B209E02D
:100C8000286800EBC00101EB0010B8FBF0F087B260
:100C900047F48047C7F30B0008B947F0010747F452
:100CA000004006434FF4967009FB00F04FF47A7150
:100CB00090FBF1F0401C2084A683208840F00100C6
:100CC000208026884FF6F5300640A88869890843B9
:100CD00006432680A88929890843208105B0BDE8FC
:100CE000F083000000127A0040420F00A08601004D
:100CF00012B141F0010102E04FF6FE73194001828A
:100D0000704701827047000010B5024800F06CF98E
:100D100010BD00000054004001460020034A506806
:100D200020F440400843506070470000001002402B
:100D300029B1064A52690243044B5A6104E0034A4E
:100D400052698243014B5A61704700000010024013
:100D500029B1064AD2690243044BDA6104E0034A2E
:100D6000D2698243014BDA617047000000100240F3
:100D700029B1064A12690243044B1A6104E0034A8E
:100D800012698243014B1A61704700000010024053
:100D900029B1064A92690243044B9A6104E0034A6E
:100DA00092698243014B9A61704700000010024033
:100DB00010B54FF48040FFF7AFFF01210846FFF761
:100DC000B7FF012140F21D20FFF7E2FF10BD000038
:100DD00030B500210022002400232D4D6D6805F060
:100DE0000C0121B1042905D0082923D105E0294DA2
:100DF000056022E0274D05601FE0254D6D6805F474
:100E00007012234D6D6805F48034022505EB924283
:100E10001CB9214D554305600BE01D4D6D6805F46F
:100E200000351DB11C4D5543056002E0194D554379
:100E3000056002E0174D056000BF00BF144D6D68EE
:100E400005F0F0010909154D6B5C0568DD40456052
:100E50000F4D6D6805F4E061090A104D6B5C456843
:100E6000DD4085600A4D6D6805F46051C90A0B4D7F
:100E70006B5C4568DD40C560054D6D6805F440411B
:100E8000890B074D6B5CC568B5FBF3F5056130BD9B
:100E90000010024000127A0000093D000D00002001
:100EA0001D00002000BF1448008801F09FF906468D
:100EB000124901F0E1FA0546114901F0DFF9044653
:100EC000104901F0B1F8104908600D490E4800685A
:100ED00001F0A0FA02D20A480B49086000210A4832
:100EE000006801F097F902D20020074908607D20D0
:100EF00000F00AFED7E700000000002000601B455C
:100F00000000C8420020C94404000020F0B5034698
:100F10001446822B01DA402900DBF0BD2548007918
:100F200020B10CB9012000E000200446012C1FD1A3
:100F30000846CD1701EB5575ED1005EB851503EB54
:100F400045051D4E755D0A46CE1701EB5676F61027
:100F5000A1EBC6070126BE403543CE1701EB5676FE
:100F6000F61006EB861603EB4606134FBD551EE042
:100F7000CD1701EB5575ED1005EB851503EB450518
:100F80000D4E755D0A46CE1701EB5676F610A1EBB5
:100F9000C6070126BE40B5430846CE1701EB56767C
:100FA000F61006EB861603EB4606034FBD5500BF51
:100FB000B3E70000400000208C00002010B504467C
:100FC0000CB9002000E0FF2002464FF48261024885
:100FD000FFF74CF910BD00008C000020014A108082
:100FE000518070474000002070B5044650480460AE
:100FF00000F0C0FC40F6C41500E06D1E002DFCD1D1
:10100000AE220021782000F0C1FC202200217820AF
:1010100000F0BCFC10220021782000F0B7FCB022C8
:101020000021782000F0B2FCC8220021782000F0D6
:10103000ADFC00221146782000F0A8FC102200210F
:10104000782000F0A3FC40220021782000F09EFCD4
:1010500081220021782000F099FCFF2200217820D5
:1010600000F094FCA1220021782000F08FFCA62241
:101070000021782000F08AFCA8220021782000F0CE
:1010800085FC3F220021782000F080FCA422002172
:10109000782000F07BFCD3220021782000F076FC41
:1010A00000221146782000F071FCD5220021782022
:1010B00000F06CFCF0220021782000F067FCD922BF
:1010C0000021782000F062FC22220021782000F02C
:1010D0005DFCDA220021782000F058FC1222002169
:1010E000782000F053FCDB220021782000F04EFC39
:1010F00020220021782000F049FC8D220021782058
:1011000000F044FC14220021782000F03FFCAF22C4
:101110000021782000F03AFC0020FFF74FFF00F09C
:1011200075F800200349088048800120487170BD8F
:101130003C000020400000202DE9F04307460C460B
:1011400090462648008821780844822805DA2348FA
:10115000408861780844402802DB0020BDE8F08325
:10116000002530E0A7F12000617800FB01506168A4
:1011700031F81090002622E009FA06F000F4004051
:1011800058B1164A52882A4491B2144A12883244FD
:1011900090B24246FFF7BAFE10E0B8F1000F01D15D
:1011A000012300E000231A460C4B5B882B4499B2C4
:1011B0000A4B1B88334498B2FFF7A8FE761C2078B0
:1011C000B042D9D86D1C6078A842CBD803480088BB
:1011D00021780844014908803846BFE740000020D4
:1011E00070B504460D4616460AE020783246294678
:1011F000FFF7A2FF2178884201D0207870BD641CDF
:1012000020780028F1D12078F8E7000010B50024FC
:101210001BE004F1B000C2B20021782000F0B6FB60
:1012200000221146782000F0B1FB10220021782026
:1012300000F0ACFB0648822101FB04020B46402172
:10124000782000F0BFFB601CC4B2082CE1DB10BDAD
:101250008C00002010B500F001F810BD0CB5002086
:10126000019000903348006840F4803031490860B4
:1012700000BF3048006800F4003000900198401C26
:101280000190009818B90198B0F5A06FF1D12948E4
:10129000006800F4003010B10120009001E000204F
:1012A00000900098012843D12348006840F01000C6
:1012B000214908600846006820F0070008600846D9
:1012C000006840F0020008601A4840681949486008
:1012D0000846406848600846406840F480604860BE
:1012E0000846406820F47C1048600846406840F496
:1012F000E81048600846006840F08070086000BF51
:101300000C48006800F000700028F9D009484068D7
:1013100020F00300074948600846406840F002009A
:10132000486000BF0348406800F00C000828F9D16D
:101330000CBD0000001002400020024010B5FEF776
:1013400067FF00F005FD18B14FF0805002490860BA
:101350000020FEF764FF10BD04ED00E010B5134857
:10136000006840F0010011490860084640681049D3
:1013700008400E494860084600680E4908400B497D
:1013800008600846006820F480200860084640682D
:1013900020F4FE0048604FF41F008860FFF75AFFFA
:1013A0004FF000600449086010BD000000100240CA
:1013B0000000FFF8FFFFF6FE08ED00E02DE9F04128
:1013C00006460F4614461D46DDF81880414628465D
:1013D000FFF704FE0CB9012000E000200246394668
:1013E0003046FFF7FDFEFFF711FFBDE8F081F0B5D5
:1013F000144600220346002508B9012508E005E04F
:101400006E1CF5B20A2693FBF6F6F3B2002BF7D169
:10141000A54201DD2E4600E02646324600268E54C7
:101420000EE00A2690FBF6F706FB17063036F7B2F9
:10143000561EF6B232468F550A2690FBF6F6F0B2EB
:10144000002AEEDCF0BD70B504460D46164600BF1E
:10145000208B00F002000028FAD101212046FFF77E
:101460009BFB00BFA08A00F001000028FAD03246A2
:1014700029462046FFF73CFC00BFA08A00F002008E
:101480000028FAD0208B00BFA08A00F0800000283E
:10149000FAD070BD10B5044601212046FFF788FB45
:1014A00000BF03492046FFF78FFB0028F9D110BD8C
:1014B0001000001070B505460C4616460AE014F8F8
:1014C000011B2846FFF71DFC00BFA88A00F0800022
:1014D0000028FAD0301EA6F101018EB2EFD170BD06
:1014E00030B585B004460D462448844204D101211C
:1014F0004805FFF72DFC03E001218805FFF728FCD4
:1015000001210820FFF744FC00212046FFF71BFBC8
:101510002046FFF725FB0020ADF8080001954FF4A9
:101520008040ADF810004BF6FF70ADF80A004FF4A4
:101530008060ADF80E003C20ADF80C000121204683
:10154000FFF701FB01A92046FFF75CFB1C208DF88B
:10155000030003208DF802000848844203D1C02014
:10156000ADF8000003E04FF44060ADF800006946BC
:101570000348FFF755FA05B030BD000000540040A5
:10158000000C01402DE9F04705460C461646301B7D
:10159000401CC7B297FBF3F000F0FF0897FBF3F095
:1015A00003FB107000F0FF09281B00F0FF0A002168
:1015B0008C4614E0494501DA012000E00020404457
:1015C000C2B20CEB0200504503DD481CC0B2BDE8BE
:1015D000F0870CEB020000F0FF0C481CC1B29942EE
:1015E000E8DB1846F3E7904200DD0846884200DA5F
:1015F000104670471FB50020214908702149087026
:101600002149087001204870FFF7D2FBFFF7DAF993
:10161000FEF7FAFFFEF7C2FE00200223CDE90030FC
:1016200002900346802219A103901B4800F012FB90
:1016300000200223CDE9003002900346802217A14A
:101640000390194800F006FB00200223CDE900308A
:1016500002900346802215A10390164800F0FAFA82
:1016600000200223CDE9003002900346802212A11F
:101670000390144800F0EEFA00F070FA00BFFEE7A5
:10168000080000200B00002009000020446973704E
:101690006C61795461736B00E9070008456E636FF4
:1016A0006465725461736B00F90800084149546124
:1016B000736B0000B10500085265616441444354F6
:1016C00061736B00A50E000810B504460E48006853
:1016D00044600E480068844207D20B480168091D27
:1016E0000B48006800F0B2F90CE007480168091DDA
:1016F0000848006800F0AAF907480068844201D24F
:101700000548046010BD000054000020680000205F
:101710005C00002058000020840000202DE9F041EA
:1017200006460F461FB9B00000F0DCF800E038466E
:10173000054655B14C2000F0D5F804460CB12563A0
:1017400004E0284600F0C8F900E000242046BDE887
:10175000F081000070B523E000F02AFA1348006819
:1017600008B9012000E00020054600F081FBBDB96A
:1017700000F092F90D48C068C468201D00F042F9DD
:101780000B480068401E0A4908600A480068401E6D
:101790000849086000F090F9204600F00DF800BFFD
:1017A000044800680028D7D170BD00003C490020E3
:1017B000640000206000002010B50446206B00F09B
:1017C0008BF9204600F088F910BD000000BFFFF73C
:1017D000C1FF034800680128F9D900F089F9F6E74C
:1017E0009C4800202DE9F04704460F4616469946CE
:1017F000DDF82080002507E0795D04F134004155D3
:10180000785D00B902E06D1C102DF5D300BF0021FA
:1018100043200155052E00D30426E662201D00F06A
:1018200012F904F1180000F00EF92461C6F1050068
:10183000A06164620020606484F84800BDE8F0871D
:1018400010B5002407E004EB84010F4A02EB81008D
:1018500000F0ECF8641C052CF5D30C4800F0E6F819
:101860000B4800F0E3F80B4800F0E0F80A4800F0FD
:10187000DDF80A4800F0DAF804480949086004482D
:101880000849086010BD00009C4800200049002065
:1018900014490020284900203C49002050490020DC
:1018A000580000205C0000200A490968096809B94D
:1018B000012100E0002121B14FF0FF31064A116003
:1018C00006E004490968C968C868034A41681160AC
:1018D000704700005800002084000020FEF798FCAC
:1018E00000BFFEE770B50446002504F0070020B1F4
:1018F00004F00700C0F10800044400F059F9124850
:10190000006820B9114820F007000F49086010480E
:101910000068204444F2F831884210D20C48006834
:1019200020440B490968884209D9074800680849DA
:10193000096845180648006820440549086000F019
:1019400097FA284670BD00004C000020A404002037
:1019500048000020001F4FF080730360001F0160EB
:10196000001F034B036014380260203870470000EA
:10197000DD18000810B5034903480068FFF7B0FD03
:1019800010BD0000801A06003C00002037B5044658
:10199000002221460A480068FFF755FD012201A9EF
:1019A00007480068FFF786FD012202A90448006885
:1019B000FFF780FD02480068FFF76CFD3EBD0000A8
:1019C0003C000020F8B504460F4615461E46402050
:1019D0000090002221460A480068FFF734FD0122EA
:1019E000694607480068FFF765FD32462946044806
:1019F0000068FFF75FFD02480068FFF74BFDF8BD88
:101A00003C00002001460A69D1E901309860D1E923
:101A1000010358605068884201D1886850600020F6
:101A200008611068401E10601068704700F10801DE
:101A300041604FF0FF31816000F10801C160016138
:101A400000210160704700210161704710B5024616
:101A50000B685C1C0CB9106907E002F1080000E09B
:101A60004068446824689C42FAD944684C604C68D9
:101A7000A160886041600A611468641C146010BD34
:101A800042684A6093688B6093685960916008610E
:101A900003685B1C0360704710B5FEF7B9FB05488F
:101AA0000068401C03490860BFF34F8FBFF36F8F7E
:101AB00010BD00005000002010B506480068401E10
:101AC000044908600846006810B90020FEF7A7FB2B
:101AD00010BD0000500000207047000003484FF088
:101AE000E021486107200861704700003F190100AC
:101AF0004FF0805003490860BFF34F8FBFF36F8FE3
:101B00007047000004ED00E070B504460026DCB12B
:101B100000F04EF80E48006805190E480068001DD8
:101B2000FFF770FF50B90B48006890F82C100120A7
:101B30008840094909688143074801602846FFF742
:101B4000C3FD00F095F906460EB9FFF7D1FF70BD51
:101B500068000020540000206C0000201FB5002009
:101B6000009001900290034680220BA103900C4844
:101B700000F070F80446012C0CD1FEF749FBA01EC2
:101B800008490860012008490860002007490860EA
:101B900000F046F81FBD000049444C45000000001D
:101BA000CD1700088400002070000020680000208D
:101BB00002480068401C0149086070478800002006
:101BC0001248006818B10120114908601DE000208A
:101BD0000F4908600F480068B0FA80F0C0F11F019B
:101BE00001EB81020C4B03EB8200426852684260B9
:101BF00000F108024368934202D142685268426091
:101C00004268D268054B1A6000BF70478800002008
:101C1000780000206C0000209C4800205400002028
:101C200010B50A48006840F47F000849086008467B
:101C3000006840F07F400860FFF750FF0020044933
:101C40000860FEF7B3FA002010BD000020ED00E0B0
:101C5000500000202DE9FF4F81B08046154699467F
:101C6000DDE90E7A28461099FFF758FD0446002C4E
:101C70004FD0681E216B01EB800B2BF0070B0095FA
:101C80003A462046119B0299FFF7ACFD4A46414671
:101C90005846FFF75FFE2060BAF1000F01D0CAF886
:101CA0000040FFF7F9FE24480068401C2249086004
:101CB0002248006840B921480460084600680128AD
:101CC0000CD1FFF7BDFD09E01D48006830B91B4885
:101CD0000068C06AB84201D8184804601948006812
:101CE000401C1849086094F82C10012088401649BF
:101CF0000968084314490860E16A01EB8101134A4D
:101D000002EB8100211DFFF7BBFE0126FFF7D4FE89
:101D100001E04FF0FF36012E09D10948006830B1CB
:101D200006480068C06AB84201D2FFF7E1FE3046BB
:101D300005B0BDE8F08F00006400002054000020D2
:101D400070000020800000206C0000209C480020D3
:101D50002DE9F04100273B480068002865D13A484A
:101D60000068401C38490860084606688EB9374844
:101D7000D0F8008036480068344908603448C0F81C
:101D8000008034480068401C32490860FFF78CFD31
:101D900000BF3148006886423BD300BF2B48006833
:101DA000006808B9012000E0002020B14FF0FF30AA
:101DB000294908602CE025480068C068C468656847
:101DC000AE4202D22448056022E0201DFFF71AFE31
:101DD000A06A18B104F11800FFF714FE94F82C1053
:101DE000012088401D49096808431C490860E16AD0
:101DF00001EB81011A4A02EB8100211DFFF740FE31
:101E00001849E06A0968C96A8842C7D30127C5E74B
:101E100000BF14480068C06A00EB8000104951F808
:101E20002000012806D9012704E00F480068401C63
:101E30000D4908600D48006800B101273846BDE82B
:101E4000F081000088000020680000205800002079
:101E50005C0000207C000020840000206C0000203A
:101E60009C480020540000207400002078000020CE
:101E700070B50025FFF710FE2C480068401E2B4966
:101E800008600846006800284BD1294800680028EF
:101E900047D024E02748C068C46804F11800FFF761
:101EA000B1FD201DFFF7AEFD94F82C1001208840F5
:101EB00021490968084320490860E16A01EB810172
:101EC0001E4A02EB8100211DFFF7DAFD1C49E06A82
:101ED0000968C96A884202D301201A490860154876
:101EE000006808B9012000E000200028D2D0164880
:101EF000006878B10AE0FFF72BFF10B1012011490B
:101F0000086011480068401E0F4908600E480068CC
:101F10000028F0D10B480068012802D10125FFF705
:101F2000E7FDFFF7C9FD284670BD000088000020CE
:101F300064000020284900206C0000209C480020FC
:101F400054000020780000207400002090EA010F67
:101F500048BF81F0004100F19682421A3CBF801ACE
:101F600089184FEAD0524FF07F4C1CEA410FA2EB88
:101F7000D15318BF9CEA026F00F03B804FF0004C39
:101F80004CEA00204CEA012121FA03FC10EB0C0C76
:101F90001ED202F1FF325FEA1C2040EBC25038BF74
:101FA00070471CF07F0F4FEA400C18BFBCF17F4F09
:101FB00038BF7047C3F12003994008BF20F00100EB
:101FC000BCF17F4F38BF7047A0F1C04000F01DBA90
:101FD0004FEA3C00000A40EBC25028BF1CF0FF0F44
:101FE0004FEA400CE6D018BFBCF17F4F38BF7047B6
:101FF000EAE79CEA026F05D010EA5C0F08BF00F028
:102000000040704710B500F0BAF900BF64FBBE3E57
:10201000401058BFC0F14040491058BFC1F1404185
:102020008142EFF3008070474FF47F0C1CEAD0121E
:102030001EBF1CEAD11392EA0C0F93EA0C0F00F0BA
:10204000858090EA010F48BF42F4807240F4000C92
:1020500041F400002CF07F4120F07F4000B5814228
:10206000A2EB03020FF2081CACEB504EC0F10000D3
:102070009EF800E04FEA4E0E00FB0EFC38BF490010
:102080004FEA2C1C02F5FA020CFB0EF34FEACE1EAF
:102090004FEA112C4FEAC1210EEB635E42EB224264
:1020A0000EFB0CFC4FEA1C5300FB03114FEA112CF2
:1020B0004FEA01310EFB0CFC4FEADC4C00FB0C112B
:1020C000C14228BF09184CEB03335DF804EB10EB59
:1020D000410143EBC250B2F57C0F38BF704729D5A0
:1020E00012F0F00F1CBF00F1C04000F0004070473C
:1020F000008182838485868788898B8C8D8E8F91E1
:102100009293959697999A9C9D9FA0A2A3A5A7A804
:10211000AAACAEB0B2B3B5B7B9BCBEC0C2C5C7C930
:10212000CCCED1D4D7D9DCDFE2E6E9ECF0F3F7FA94
:10213000FE0000004FEA400C0CF1807CBCF17E4FA9
:1021400028BF7047B0F1C04000F05FB990EA010FBE
:102150000CEAD11348BF42F48072624538BF634530
:1021600007D213F47F0F16D080EA010000F0004080
:10217000704710B500F003F9097EFC3E00F005B889
:1021800080EA010000F00040704780EA010000F0A2
:10219000004000F03AB912F47F0F04BF02487047C4
:1021A00080EA010000F031B90000C07FC10DD1F11B
:1021B0009E0206DB4FEA002343F0004323FA02F0BD
:1021C0007047004207D54FEA4001B1F1FE4F02D2FD
:1021D0004FF00000704710B500F0D1F8499224800C
:1021E000002070476FEA200070470000B0FA80F3CB
:1021F00010FA03F2C3F19D030AD0D90501EB1220B6
:10220000530638BF704700F1010008BF20F00100FD
:102210007047000050EA010C00F113801CF5000F1C
:1022200058BFBCF5000F01D48842704707D710F59E
:10223000000F58BF11F5000F15D48842704789422E
:1022400070471CF5000F04D5BCF5000FF7D581428F
:1022500070474FF0807C1CEB400F38BF1CEB410FE8
:1022600001D28142704710B500F089F892244900EC
:102270004FF000504FF08051FFF7CABE4FF47F0C73
:102280001CEAD0121EBF1CEAD11392EA0C0F93EA8B
:102290000C0F00F0478090EA010F48BF42F48072B3
:1022A0004FF0004C4CEA00204CEA012102EB030203
:1022B000A0FB0113A2F50002002918BF43F001039F
:1022C0005B0028BF4FEA330342EB22425FEA132C44
:1022D0004CEBC2502EBFBCEB436FB2F57C0F704786
:1022E0004FEA036CBCF1004F08BF20F00100B2F5CB
:1022F0007C0F38BF70470BD582F0FF0212F5803F8C
:10230000C8BF704700F1C040D8BF00F00040704720
:1023100000F5000C5FEA4C0C48BF7047B0F1C040BC
:1023200000F073B890EA010F0CEAD11348BF42F4F1
:102330008072624538BF634504D280EA010000F034
:102340000040704710B500F01AF800BF8900013E48
:1023500000F007B800F009B85FEA410C5FEA1C6CB6
:1023600008D080EA010000F050B85FEA400C5FEA54
:102370001C6CF6D14FF00040A0F5800070470EF1C4
:10238000020E2EF0030E5EF8044B244204D44FEAF2
:102390004102B2F17F4F11D84FEA4003B3F17F4FB2
:1023A0000CD80ED14FEAD07CB2F17F4F0CEB4C0C25
:1023B0000CF1020C08BF4CEBD17C04E04FF0080C90
:1023C00001E04FEAD17C0CEB4C0324FA03F404F057
:1023D0000704B4F1040C06D20EEB840CBDE81040E7
:1023E0004CF0010C6047DFE80CF0070802024FF0E8
:1023F0000040A0F5800010BD0846420018BFD2F191
:10240000807288BF00F0004010BDFF2141EAD0502B
:10241000C005704751EA000C00F113801CF5000F55
:1024200058BFBCF5000F01D48142704707D711F5A2
:10243000000F58BF10F5000F15D481427047894234
:1024400070471CF5000F04D5BCF5000FF7D5884286
:1024500070474FF0807C1CEB410F38BF1CEB400FE6
:1024600001D28842704780EA010081EA000180EAD7
:102470000100FFF7F8BE000090EA010F48BF81F0AD
:1024800000413FF56AAD421A04D882F00042A0EB49
:10249000020011444FEAD0524FF07F4C1CEA410F2A
:1024A000A2EBD15318BF9CEA026F4AD04FF0004C08
:1024B0004CEA00204CEA012121FA03FCB0EB0C0CA1
:1024C0000FD412F0FE0F36D05FEA4C001DD500127B
:1024D00040EBC25038BF70471CF03F0F18BF704729
:1024E0000BE0A2F101025FEA1C2040EBC25038BFB2
:1024F00070471CF07F0F18BF7047C3F1200399404D
:1025000014BF401E20F00100704780084FEA1223DC
:1025100008BF7047B0FA80FCA2EB0C02CCF1280C8B
:1025200060FA0CF093EA122F04BF00EBC250704720
:102530004FEAC3707047130A5FEADC1008BF7047A8
:10254000F6E79CEA026F04D010EA5C0F08BF002097
:10255000704710B5FFF713FF40DFF63E81F00040F3
:1025600070470000000000000000000000000000B4
:10257000000000000000001000100010001000100B
:1025800000100000001000000000002800280028B3
:102590000000000000000000000000000000002417
:1025A0000024007C00240048007C00480048000013
:1025B000000000380054005000380014005400544B
:1025C000003800100000002000540058003000289F
:1025D000005400140008000000000010002800282B
:1025E00000100034004800480034000000000010D3
:1025F00000100010000000000000000000000000BB
:102600000000000800100020002000200020002012
:10261000002000100008002000100008000800083A
:10262000000800080008001000200010003800100A
:102630000028000000000000000000000000000072
:10264000000000100010007C0010001000000000CE
:10265000000000000000000000000000000000007A
:10266000001000100010000000000000000000003A
:102670000038000000000000000000000000000022
:102680000000000000000000001000000000000832
:1026900000080010001000100010002000200000B2
:1026A000000000380044004400540044004400444A
:1026B0000038000000000010003000500010001032
:1026C000001000100010000000000038004400441A
:1026D0000004000800100020007C0000000000380A
:1026E0000044000400180004000400440038000006
:1026F000000000080018002800280048007C00089E
:10270000000800000000007C004000400078000449
:10271000000400440038000000000038004400407D
:102720000078004400440044003800000000007CB1
:10273000000400080010001000200020002000000D
:1027400000000038004400440038004400440044C5
:102750000038000000000038004400440044003C01
:1027600000040044003800000000000000000010D9
:102770000000000000000000001000000000000049
:102780000000000000100000000000000010001019
:10279000001000000000000C003000400030000C71
:1027A000000000000000000000000000007C0000AD
:1027B000007C00000000000000000000000000603D
:1027C000001800040018006000000000000000383D
:1027D0000044000400080010001000000010000079
:1027E000000000380044004C0054005C00400040F1
:1027F00000380000000000100028002800280028F1
:10280000007C0044004400000000007800440044C4
:1028100000780044004400440078000000000038C4
:1028200000440040004000400040004400380000E8
:102830000000007000480044004400440044004888
:10284000007000000000007C00400040007C004060
:1028500000400040007C00000000007C0040004080
:1028600000780040004000400040000000000038B8
:10287000004400400040005C004400440038000078
:102880000000004400440044007C00440044004434
:10289000004400000000003800100010001000107C
:1028A00000100010003800000000000400040004C4
:1028B000000400040004004400380000000000444C
:1028C00000480050006000500048004800440000EC
:1028D0000000004000400040004000400040004038
:1028E000007C000000000044006C006C00540044B8
:1028F0000044004400440000000000440064006400
:1029000000540054004C004C00440000000000380B
:1029100000440044004400440044004400380000E7
:10292000000000780044004400440078004000406B
:10293000004000000000003800440044004400440F
:1029400000440054003800040000007800440044B3
:1029500000440078004800480044000000000038AF
:10296000004400400030000800040044003800002B
:102970000000007C0010001000100010001000107B
:1029800000100000000000440044004400440044E3
:1029900000440044003800000000004400440044AB
:1029A000002800280028001000100000000000444B
:1029B0000044005400540054006C0028002800001B
:1029C0000000004400280028001000100028002803
:1029D00000440000000000440044002800280010CB
:1029E00000100010001000000000007C000400082F
:1029F0000010001000200040007C000000000018C3
:102A00000010001000100010001000100010001046
:102A10000018002000200010001000100010000816
:102A2000000800000000003000100010001000102E
:102A300000100010001000100030001000280028C6
:102A40000044000000000000000000000000000042
:102A50000000000000000000000000000000000076
:102A600000FE002000100000000000000000000038
:102A70000000000000000000000000380044003C9E
:102A80000044004C003400000000004000400058AA
:102A9000006400440044006400580000000000008E
:102AA00000000038004400400040004400380000AE
:102AB0000000000400040034004C00440044004CBA
:102AC0000034000000000000000000380044007CDA
:102AD00000400044003800000000000C0010007CA2
:102AE0000010001000100010001000000000000096
:102AF00000000034004C00440044004C003400044A
:102B00000078004000400058006400440044004445
:102B100000440000000000100000007000100010D1
:102B200000100010001000000000001000000070F5
:102B300000100010001000100010001000E0004015
:102B40000040004800500060005000480044000071
:102B500000000070001000100010001000100010A5
:102B60000010000000000000000000780054005435
:102B70000054005400540000000000000000005801
:102B800000640044004400440044000000000000D1
:102B900000000038004400440044004400380000B5
:102BA000000000000000005800640044004400647D
:102BB000005800400040000000000034004C004479
:102BC0000044004C003400040004000000000058E1
:102BD0000064004000400040004000000000000091
:102BE00000000038004400300008004400380000B5
:102BF000000000200020007800200020002000209D
:102C000000180000000000000000004400440044E0
:102C10000044004C003400000000000000000044AC
:102C200000440028002800280010000000000000D8
:102C30000000005400540054006C002800280000DC
:102C400000000000000000440028001000100028D0
:102C50000044000000000000000000440044002880
:102C60000028001000100010006000000000007C30
:102C70000008001000200040007C00000000001848
:102C800000100010001000200020001000100010A4
:102C900000180010001000100010001000100010AC
:102CA000001000100010003000100010001000088C
:102CB00000080010001000100030000000000000AC
:102CC0000074004C00000000000000000000000044
:102CD00000000000000000000000000000000000F4
:102CE00000000000000000000000000000000000E4
:102CF00000000000000C000C000C000C000C000C8C
:102D0000000C000C000C000C000C0000000C000C6F
:102D10000000000000000000001B001B001B001B47
:102D2000001B000000000000000000000000000088
:102D30000000000000000000000000008019801961
:102D400080198019C07FC07F80190033C07FC07F89
:102D500000330033003300330000000000000000A7
:102D6000001E003F807580650074003C001E000757
:102D70008005806580658075003F001E00040004AA
:102D800000000000007000D840D8C0D880D900737F
:102D90000006000C801BC036C066C046C00680031B
:102DA0000000000000000000001E003F0033003360
:102DB0000033001E000CC03CC066806380618063ED
:102DC000C03E801C0000000000000000000C000C51
:102DD000000C000C000C00000000000000000000CF
:102DE0000000000000000000000000000000800063
:102DF00000010003000600060004000C000C000C9B
:102E0000000C000C000C000400060006000300018A
:102E10008000002000100018000C000C00040006C8
:102E2000000600060006000600060004000C000C68
:102E30000018001000200000000C002D003F001EB4
:102E4000003300000000000000000000000000004F
:102E50000000000000000000000000000000000072
:102E6000000C000C000C000CC0FFC0FF000C000C9C
:102E7000000C000C0000000000000000000000003A
:102E80000000000000000000000000000000000042
:102E90000000000000000000000C000C0004000412
:102EA000000800000000000000000000000000001A
:102EB00000000000001E001E0000000000000000D6
:102EC0000000000000000000000000000000000002
:102ED00000000000000000000000000000000000F2
:102EE000000C000C000000000000000000030003C4
:102EF00000030006000600060006000C000C000C93
:102F0000000C00180018001800000000000000006D
:102F1000001E003F0033806180618061806D806DA4
:102F20008061806180610033003F001E000000006E
:102F3000000000000006000E001E003600260006FD
:102F40000006000600060006000600060006000651
:102F50000000000000000000001E003F8073806140
:102F60008061800100030006000C00180030006042
:102F7000807F807F0000000000000000001C003EF9
:102F8000006300630003000E000E00038001800157
:102F900080618073003F001E000000000000000000
:102FA0000006000E000E001E001E00160036003641
:102FB0000066807F807F000600060006000000009B
:102FC00000000000007F007F006000600060006E75
:102FD000007F80638001800180618073003F001E5C
:102FE0000000000000000000001E003F80338061F0
:102FF0000060006E007F807380618061806180333B
:10300000003F001E0000000000000000807F807F65
:1030100080010003000300060006000C000C000CF9
:103020000008001800180018000000000000000050
:10303000001E003F8063806180610021001E003F10
:103040008061806180618061003F001E000000009F
:1030500000000000001E003F0073806180618061FD
:103060008073803F801D800180610073003F001EDF
:103070000000000000000000000000000000000050
:10308000000C000C00000000000000000000000028
:10309000000C000C00000000000000000000000018
:1030A000000000000000000C000C00000000000008
:1030B00000000000000C000C0004000400080000E8
:1030C00000000000000080008003000E0038006057
:1030D0000038000E800380000000000000000000A7
:1030E000000000000000000000000000807F807FE2
:1030F00000000000807F807F0000000000000000D2
:10310000000000000000000000000000000000407F
:103110000070001C000780010007001C00700040C8
:10312000000000000000000000000000001F803FC1
:10313000C071C060C000C00180030007000E000C19
:10314000000C0000000C000C00000000000000005B
:10315000001E003F803180718063806F806D806DC4
:10316000806F806700600032003E001C000000009D
:1031700000000000000E000E001B001B001B001BC7
:1031800080318031803F803F8031C060C060C0604E
:103190000000000000000000007C007E006300636F
:1031A00000630063007E007E006380618061806355
:1031B000007F007E0000000000000000001E003FB5
:1031C000803180610060006000600060006000602D
:1031D00080618031003F001E000000000000000000
:1031E000007C007F0063806380618061806180611A
:1031F0008061806100630063007E007C000000004D
:1032000000000000807F807F006000600060006040
:10321000007F007F0060006000600060807F807F32
:103220000000000000000000807F807F00600060E0
:1032300000600060007F007F006000600060006050
:10324000006000600000000000000000001E003F61
:103250008031806100600060006080638063806115
:1032600080618031803F001E0000000000000000EF
:10327000806180618061806180618061807F807F0A
:1032800080618061806180618061806100000000F8
:1032900000000000003F003F000C000C000C000C80
:1032A000000C000C000C000C000C000C003F003F58
:1032B000000000000000000080018001800180010A
:1032C00080018001800180018001806180618073C4
:1032D000003F001E0000000000000000C060806190
:1032E000006300660066006C0078007C0066006683
:1032F000006380618061C060000000000000000089
:1033000000600060006000600060006000600060BD
:103310000060006000600060807F807F000000002F
:1033200000000000C071C071C07BC07AC06AC06A72
:10333000C06EC064C060C060C060C060C060C0607B
:1033400000000000000000008071807180798079A9
:103350008079806D806D806D806580678067806713
:10336000806380630000000000000000001E003F3A
:1033700000338061806180618061806180618061F3
:1033800080610033003F001E0000000000000000CC
:10339000007E007F80638061806180618063007F48
:1033A000007E0060006000600060006000000000BF
:1033B00000000000001E003F0033806180618061DA
:1033C000806180618061806580670033803F401E3E
:1033D0000000000000000000007E007F806380612C
:1033E00080618063007F007E00660063006380610F
:1033F0008061C0600000000000000000000E001F9F
:103400008031803100300038001E00078003806169
:1034100080618031003F001E0000000000000000BD
:10342000C0FFC0FF000C000C000C000C000C000CD6
:10343000000C000C000C000C000C000C0000000044
:103440000000000080618061806180618061806136
:10345000806180618061806180618073003F001EB7
:103460000000000000000000C060C060C06080314B
:1034700080318031001B001B001B001B000E000E62
:10348000000E00040000000000000000C0C0C0C02A
:10349000C0C0C0C0C0C0C0CC804C804C805E8052D8
:1034A0008052807380618061000000000000000095
:1034B000C0C0806080610033003B001E000C000C27
:1034C000001E001F003B80718061C0C00000000032
:1034D00000000000C0C08061806100330033001E26
:1034E000001E000C000C000C000C000C000C000C6A
:1034F0000000000000000000803F803F80010003CA
:1035000000030006000C000C0018001800300060DA
:10351000807F807F000000000000000F000F000C83
:10352000000C000C000C000C000C000C000C000C3B
:10353000000C000C000C000C000C000F000F000031
:10354000001800180018000C000C000C000C0006FD
:103550000006000600060003000300030000000050
:103560000000001E001E0006000600060006000601
:10357000000600060006000600060006000600061B
:103580000006001E001E0000000C000C001E0012B1
:103590000033003380618061000000000000000003
:1035A000000000000000000000000000000000001B
:1035B000000000000000000000000000000000000B
:1035C00000000000000000000000E0FF000000001C
:1035D00000380018000C000000000000000000008F
:1035E00000000000000000000000000000000000DB
:1035F000000000000000000000000000001F803FED
:1036000080618001801F803F80618063807FC0383F
:10361000000000000000000000600060006000602A
:10362000006E007F80738061806180618061807343
:10363000007F006E0000000000000000000000009D
:1036400000000000001E003F807380610060006089
:1036500080618073003F001E000000000000000039
:103660008001800180018001801D803F8073806126
:103670008061806180618073803F801D0000000058
:10368000000000000000000000000000001E003FDD
:1036900000738061807F807F00608071003F001E2A
:1036A0000000000000000000C007C00F000C000C6C
:1036B000807F807F000C000C000C000C000C000CC4
:1036C000000C000C000000000000000000000000E2
:1036D0000000801D803F8073806180618061806117
:1036E0008073803F801D80018063007F003E00006A
:1036F0000060006000600060006F807F807180610A
:103700008061806180618061806180610000000073
:10371000000000000006000600000000003E003E21
:103720000006000600060006000600060006000669
:103730000000000000000006000600000000003E3F
:10374000003E000600060006000600060006000611
:10375000000600060046007E003C0000006000609D
:1037600000600060806100630066006C007C007691
:10377000006300638061C060000000000000000082
:10378000003E003E00060006000600060006000699
:103790000006000600060006000600060000000005
:1037A00000000000000000000000000080DDC0FFFD
:1037B000C0CEC0CCC0CCC0CCC0CCC0CCC0CCC0CCA7
:1037C00000000000000000000000000000000000F9
:1037D000006F807F80718061806180618061806125
:1037E0008061806100000000000000000000000017
:1037F00000000000001E003F8073806180618061D6
:1038000080618073003F001E000000000000000087
:10381000000000000000006E007F80738061806106
:10382000806180618073007F006E006000600060D6
:1038300000600000000000000000801D803F8073D9
:1038400080618061806180618073803F801D800124
:1038500080018001800100000000000000000000E5
:103860000067803F00390030003000300030003009
:1038700000300030000000000000000000000000E8
:1038800000000000001E803F80610060007F803FDC
:1038900080018061007F001E000000000000000029
:1038A0000000000800180018007F007F00180018B2
:1038B0000018001800180018801F800F000000007A
:1038C0000000000000000000000000008061806136
:1038D000806180618061806180618063807F803DE4
:1038E00000000000000000000000000000000000D8
:1038F000C060803180318031001B001B001B000E36
:10390000000E0006000000000000000000000000A3
:103910000000000080DD80DD80DD00550055005591
:103920000077007700220022000000000000000065
:103930000000000000000000806100330033001E22
:10394000000C000C001E00330033806100000000FA
:1039500000000000000000000000806180618031F4
:1039600000330033001B001B001B000E000E000E76
:10397000001C007C0070000000000000000000003F
:10398000C07FC07F800100030006000C00180030DB
:10399000C07FC07F00000000000080038007000699
:1039A0000006000600060006000E001C001C000EAB
:1039B00000060006000600060006800780030006D9
:1039C00000060006000600060006000600060006C7
:1039D00000060006000600060006000600060006B7
:1039E00000060038003C000C000C000C000C000C21
:1039F000000E00070007000E000C000C000C000C6D
:103A0000000C003C00380000000000000000000036
:103A1000000000008038807F0047000000000000A8
:103A20000000000000000000000000000000000096
:103A30000000000000000000000000000000000086
:103A40000000000000000000000000000000000076
:103A50000000000000000000000000000000E00383
:103A6000E003E003E003E003E003E003E003C0035E
:103A7000C003C001C001C001C001C00100000000BE
:103A80000000E003E003E00300000000000000008D
:103A900000003C1E3C1E3C1E3C1E3C1E3C1E3C1EB0
:103AA0000000000000000000000000000000000016
:103AB0000000000000000000000000000000000006
:103AC000000000000000CE01CE03DE039E039C0335
:103AD0009C07FF3FFF7F3807380F780F780F780E6D
:103AE000FFFFFFFFF01EF01CE01CE03CE03DE03972
:103AF00000000000000000000000FC03FE0FEE1FAD
:103B0000E01EE01EE01EE01EE01FE00FE007F003F5
:103B1000FC01FE01FE01FE01FE01FE01FE01FE3D73
:103B2000FC3FF00FE001E001000000000000033E58
:103B300007F78FE78EE79EE3BCE3B8E7F8E7F0F717
:103B4000E03FC001FF03FF07F307F30FF31EF33C51
:103B5000F338F3787FF03FE0000000000000000041
:103B60000000E007F80F780F781F781F781F780F94
:103B7000F00FE00F801FC37FC3FBE7F3F7F1F7F00F
:103B8000FFF07FF03EF87F7CFF3FEF1F000000005A
:103B9000000000000000E003E003E003E003E003B6
:103BA000C003C00100000000000000000000000091
:103BB0000000000000000000000000000000000005
:103BC000000000000000000000003F007C00F00149
:103BD000E001C003C00780078007800F000F000FBF
:103BE000000F000F000F000F800F80078007C00735
:103BF000C003E001F0017C003F000F000000007EE8
:103C0000001FC007C003E001F001F000F000F80061
:103C1000780078007800780078007800F800F000EC
:103C2000F000F001E001C003C007001F007E007833
:103C30000000E003C003C001CE39FF3F7F3F2003F7
:103C40007003F807780F3C1F3806000000000000E2
:103C50000000000000000000000000000000000064
:103C60000000000000000000000000000000000054
:103C70000000C001C001C001C001C001C001C001FD
:103C8000FFFFFFFFC001C001C001C001C001C001B2
:103C90000000000000000000000000000000000024
:103CA0000000000000000000000000000000000014
:103CB000000000000000000000000000E003E0033E
:103CC000E003E003E001E001E001C0018003000047
:103CD00000000000000000000000000000000000E4
:103CE00000000000FE3FFE3F00000000000000005A
:103CF00000000000000000000000000000000000C4
:103D000000000000000000000000000000000000B3
:103D100000000000000000000000000000000000A3
:103D200000000000E003E003E003E0030000000007
:103D30000000000000000F000F001E001E003C00ED
:103D40003C0078007800F000F000E001E001C003E2
:103D5000C00380078007000F000F001E001E003CFC
:103D6000003C0078007800F00000F007F80F7C1F9E
:103D70003E3E1E3C1F7C1F7C0F780F780F780F781B
:103D80000F780F780F781F7C1F7C1E3C3E3E7C1FF7
:103D9000F80FF00700000000000000000000F00035
:103DA000F007F03FF03FF001F001F001F001F00109
:103DB000F001F001F001F001F001F001F001F0017B
:103DC000F001F001FF3FFF3F000000000000000095
:103DD0000000E00FF83F7C3C3C003E003E003E000F
:103DE0003C003C007C00F800F001E003C0078007C5
:103DF000000F001E003E003CFE3FFE3F00000000A2
:103E0000000000000000F00FF81F7C1C3E003E0088
:103E10003E003C003C00F800F00FF80F7C003E0034
:103E20001E001E001E001E003E007C1CF81FE01F2E
:103E3000000000000000000000007800F800F8001A
:103E4000F801F803F807F807780F781E781E783C19
:103E500078787878FFFFFFFF7800780078007800A6
:103E60007800780000000000000000000000FC1F47
:103E7000FC1FFC1F001E001E001E001E001EE01F77
:103E8000F81FFC007C003E003E001E003E003E008D
:103E90003C007C1CF81FE01F000000000000000038
:103EA0000000FC01FE078E0F001F001E003E003CBC
:103EB000003CF83DFC3F3E7F1F7E0F3C0F3C0F3C1B
:103EC0000F3C0F3E1F1E3E1FFC0FF00300000000C2
:103ED000000000000000FF3FFF3FFF3F0F001E00FB
:103EE0001E003C0038007800F000F000E001E00126
:103EF000C003C0038007800F800F000F001F001F4A
:103F000000000000000000000000F807FC0F3E1F4A
:103F10001E1E1E3E1E3E1E1E3C1FF80FF007F80F11
:103F2000FC1E3E3E1F3C1F7C0F7C0F7C1F3C3E3F17
:103F3000FC1FF00700000000000000000000F00778
:103F4000F80F7C1E3E3C1E3C1F7C1F7C1F7C1F7C90
:103F50001F3C3F3EFF1FEF071F001E001E003E00DC
:103F60003C00F838F03FE01F0000000000000000B7
:103F70000000000000000000000000000000E0035E
:103F8000E003E003E0030000000000000000000088
:103F900000000000E003E003E003E0030000000095
:103FA0000000000000000000000000000000000011
:103FB0000000E003E003E003E00300000000000075
:103FC0000000000000000000E003E003E003E00365
:103FD000E001E001E001C0038003000000000000F8
:103FE00000000000000003000F003F00FC00F00391
:103FF000C00F003F00FE003FC00FF003FC003F0079
:104000000F0003000000000000000000000000009E
:1040100000000000000000000000000000000000A0
:104020000000FFFFFFFF000000000000FFFFFFFF98
:104030000000000000000000000000000000000080
:10404000000000000000000000000000000000E090
:1040500000F8007E801FE007F8017E001F007E0050
:10406000F801E007801F007E00F800E0000000007B
:10407000000000000000F01FFC3F3E381F381F38D2
:104080001E001E003C007800F000E001C003C003E9
:10409000C007C007000000000000C007C007C0073D
:1040A00000000000000000000000F803FE0F1E1FCB
:1040B0000F3E7F3CFF78EF79C773C7F38FF38FF321
:1040C0008FF39FF39FF3FF73FF7BF779003C1C1F77
:1040D000FC0FF803000000000000000000000000DA
:1040E00000000000E003E003F007F007F007780F9E
:1040F000780F7C0E3C1E3C1E3E3CFE3FFF3F1F786F
:104100000F780FF007F007F000000000000000003B
:104110000000000000000000F83FFC3F3E3C1E3C59
:104120001E3C1E3C3E3C7C3CF03FF83F7E3C1F3C2E
:104130001F3C0F3C0F3C1F3CFE3FF83F00000000BF
:10414000000000000000000000000000FF01FF0769
:10415000871F003E003C007C0078007800780078E3
:104160000078007C007C003E003F831FFF07FF01BA
:10417000000000000000000000000000000000003F
:10418000F07FFC7F7E781F781F780F780F780F788C
:104190000F780F780F780F780F781F781E787E7859
:1041A000F87FE07F00000000000000000000000039
:1041B00000000000FF3FFF3F003E003E003E003E8B
:1041C000003E003EFE3FFE3F003E003E003E003E01
:1041D000003E003EFF3FFF3F0000000000000000E7
:1041E0000000000000000000FF1FFF1F001E001E57
:1041F000001E001E001E001EFF1FFF1F001E001ECF
:10420000001E001E001E001E001E001E00000000FA
:10421000000000000000000000000000FE03FF0F8F
:10422000871F003E007C007C007800F800F87FF8D3
:104230007FF80F780F7C0F7C0F3E8F1FFF0FFE0360
:10424000000000000000000000000000000000006E
:104250001F7C1F7C1F7C1F7C1F7C1F7C1F7C1F7C86
:10426000FF7FFF7F1F7C1F7C1F7C1F7C1F7C1F7CB0
:104270001F7C1F7C00000000000000000000000008
:1042800000000000FF3FFF3FE003E003E003E00326
:10429000E003E003E003E003E003E003E003E00306
:1042A000E003E003FF3FFF3F0000000000000000CC
:1042B0000000000000000000FC1FFC1F7C007C00D0
:1042C0007C007C007C007C007C007C007C007C000E
:1042D0007C0078007800F838F03FC03F0000000014
:1042E0000000000000000000000000001F3C1E3C19
:1042F0003C3C783CF03CE03DE03FC03F803FC03F6D
:10430000E03FF03DF03C783C7C3C3E3C1F3C0F3CA9
:10431000000000000000000000000000000000009D
:10432000003E003E003E003E003E003E003E003E9D
:10433000003E003E003E003E003E003E003E003E8D
:10434000FF3FFF3F000000000000000000000000F1
:10435000000000001FF81FFC1FFC3FFE3FFE3FFE59
:104360007FFF77FF77FFF7F7E7F7E7F3E7F3C7F3A9
:1043700007F007F007F007F0000000000000000061
:1043800000000000000000000F7C0F7C0F7E0F7FFC
:104390000F7F8F7F8F7FCF7FEF7BEF79FF79FF7864
:1043A000FF787F783F783F781F781F780000000003
:1043B000000000000000000000000000F007FC1FEB
:1043C0003E3E1F7C0F780F780FF80FF80FF80FF8AC
:1043D0000FF80FF80F780F781F7C3E3EFC1FF00798
:1043E00000000000000000000000000000000000CD
:1043F000FC3FFF3F1F3E0F3E0F3E0F3E0F3E1F3E56
:104400003F3EFC3FF03F003E003E003E003E003E8F
:10441000003E003E00000000000000000000000020
:1044200000000000F007FC1F3E3E1F7C0F780F7855
:104430000FF80FF80FF80FF80FF80FF80F780F7844
:104440001F7C3E3EFC1FF8077C003F000F0003006E
:104450000000000000000000F03FFC3F7E3C3E3CBE
:104460001E3C1E3C3E3C3C3CFC3CF03FE03FF03DF3
:10447000F83C7C3C3E3C1E3C1F3C0F3C00000000D6
:10448000000000000000000000000000FC07FE1F0C
:104490000E3E003C003C003C003EC01FF80FFE03F7
:1044A0007F001F000F000F001F203E3CFC3FF01F4D
:1044B00000000000000000000000000000000000FC
:1044C000FFFFFFFFE003E003E003E003E003E0039E
:1044D000E003E003E003E003E003E003E003E003C4
:1044E000E003E00300000000000000000000000006
:1044F000000000000F7C0F7C0F7C0F7C0F7C0F7C7A
:104500000F7C0F7C0F7C0F7C0F7C0F7C0F7C1E3C84
:104510001E3C3E3EFC1FF0070000000000000000B3
:10452000000000000000000007F007F007F80F7817
:104530000F7C1E3C1E3C1E3E3C1E3C1F781F780F0D
:10454000F80FF007F007F007E003E00300000000B9
:1045500000000000000000000000000003E003F085
:1045600003F007F0E7F3E7F3E7F3E773F77BF77F91
:10457000FF7F7F7F7F7F7E7F7E3F3E3E3E3E3E3E93
:10458000000000000000000000000000000000002B
:1045900007F80F7C1E3E3E3E3C1FF80FF007E00779
:1045A000E003E003F007F80F7C0F7C1E3E3C1F7811
:1045B0000F780FF000000000000000000000000075
:1045C0000000000007F807780F7C1E3C1E3E3C1FD1
:1045D000780FF80FF007E003E003E003E003E003E7
:1045E000E003E003E003E00300000000000000003F
:1045F0000000000000000000FF7FFF7F0F001F0091
:104600003E007C00F800F000E001E003C007800FEE
:10461000000F001E003E007CFF7FFF7F00000000B7
:10462000000000000000FF07800780078007800768
:104630008007800780078007800780078007800742
:104640008007800780078007800780078007800732
:1046500080078007FF07FF07000000780078003C14
:10466000003C001E001E000F000F80078007C003E3
:10467000C003E001E001F000F000780078003C00A9
:104680003C001E001E000F000F0007000000F07F1E
:10469000F000F000F000F000F000F000F000F0009A
:1046A000F000F000F000F000F000F000F000F0008A
:1046B000F000F000F000F000F000F000F07FF07F7C
:1046C0000000C000C001C001E003E003F007F007F4
:1046D0007807780F380F3C1E3C1E1E3C1E3C0F38DE
:1046E0000F780778000000000000000000000000C4
:1046F00000000000000000000000000000000000BA
:1047000000000000000000000000000000000000A9
:104710000000000000000000000000000000000099
:10472000FFFFFFFF000000000000F000000000009D
:104730000000000000000000000000000000000079
:104740000000000000000000000000000000000069
:104750000000000000000000000000000000000059
:1047600000000000000000000000F80FFC3F7C3C4F
:104770003E003E003E00FE07FE1F3E3E3E7C3E7871
:104780003E7C7E7CFF3FCF1F000000000000000049
:104790000000003C003C003C003C003C003CF83D7C
:1047A000FE3F3E3F1F3E0F3C0F3C0F3C0F3C0F3C7B
:1047B0000F3C1F3C1E3C3E3FFC3FF03B0000000016
:1047C00000000000000000000000000000000000E9
:1047D0000000FE03FF0F871F003E003E003C007CF0
:1047E000007C007C003C003E003E871FFF0FFE0364
:1047F000000000000000000000001F001F001F005C
:104800001F001F001F00FF07FF1F3F3E1F3C1F7CB4
:104810001F7C1F7C1F781F781F7C1F7C3F3C7F3EC6
:10482000FF1FDF0F0000000000000000000000007C
:1048300000000000000000000000F803FC0F3E1F15
:104840001E3E1F3C1F7CFF7FFF7F007C007C003CE6
:10485000003E071FFF0FFE030000000000000000E5
:104860000000FF01E103C003C007C007C007FF7FCE
:10487000FF7FC007C007C007C007C007C007C00749
:10488000C007C007C007C007C007C007000000007E
:104890000000000000000000000000000000000018
:1048A0000000EF07FF1F7F3E1F3C1F7C1F7C1F780F
:1048B0001F781F781F7C1F7C3F3C7F3EFF1FDF0F50
:1048C0001E001E001E007C38F83F003C003C003CEF
:1048D000003C003C003CFC3DFE3F9E3F1F3F1F3E16
:1048E0001F3C1F3C1F3C1F3C1F3C1F3C1F3C1F3CF0
:1048F0001F3C1F3C00000000000000000000F00111
:10490000F0010000000000000000E07FE07FE00117
:10491000E001E001E001E001E001E001E001E0018F
:10492000E001E001E001E001000000000000000003
:104930000000F800F8000000000000000000F83F50
:10494000F83FF800F800F800F800F800F800F80068
:10495000F800F800F800F800F800F800F800F80097
:10496000F000F071E07F003C003C003C003C003C6B
:10497000003C1F3C3E3C7C3CF83CF03DE03DC03FF1
:10498000C03FE03FF03DF83C7C3C3E3C1F3C1F3CC0
:1049900000000000000000000000F07FF001F001C6
:1049A000F001F001F001F001F001F001F001F0017F
:1049B000F001F001F001F001F001F001F001F0016F
:1049C000F001F00100000000000000000000000005
:1049D000000000000000000000009EF7FFFFFFFF46
:1049E000FFFFE7FBE7F9C7F1C7F1C7F1C7F1C7F16F
:1049F000C7F1C7F1C7F1C7F10000000000000000D7
:104A00000000000000000000000000000000FC3D6D
:104A1000FE3F9E3F1F3F1F3E1F3C1F3C1F3C1F3C55
:104A20001F3C1F3C1F3C1F3C1F3C1F3C0000000064
:104A30000000000000000000000000000000000076
:104A40000000F007FC1F3E3E1F3C1F7C0F780F78D4
:104A50000F780F780F781F7C1F3C3E3EFC1FF0073D
:104A60000000000000000000000000000000000046
:104A7000000000000000F83DFE3F3E3F1F3E0F3C9F
:104A80000F3C0F3C0F3C0F3C0F3C1F3C1E3E3E3F7B
:104A9000FC3FF83F003C003C003C003C003C000078
:104AA00000000000000000000000EE07FE1F7E3E38
:104AB0001E3C1E7C1E781E781E781E781E781E7C7A
:104AC0003E7C7E3EFE1FDE0F1E001E001E001E00EE
:104AD0001E000000000000000000000000007F1F1A
:104AE000FF1FE71FC71F871F001F001F001F001F9A
:104AF000001F001F001F001F001F001F00000000FC
:104B000000000000000000000000000000000000A5
:104B10000000FC07FE1F0E1E003E003E003FE01F8F
:104B2000FC07FE003E001E001E003E3CFC3FF01F46
:104B30000000000000000000000000000000000075
:104B4000800780078007FF7FFF7F8007800780073F
:104B50008007800780078007800780078007C007DD
:104B6000FF03FF0100000000000000000000000043
:104B7000000000000000000000001E3C1E3C1E3C27
:104B80001E3C1E3C1E3C1E3C1E3C1E3C1E3C3E3C35
:104B90007E3CFE3EFE1FDE0F000000000000000015
:104BA000000000000000000000000000000007F00E
:104BB0000F780F781E3C1E3C1E3E3C1E3C1E780F9C
:104BC000780FF00FF007F007E003E00300000000AB
:104BD00000000000000000000000000000000000D5
:104BE000000003F0E3F1E3F3E7F3F7F3F7F3F77F04
:104BF000777F7F7F7F7F7F7F3E3E3E3E3E3E3E3ED5
:104C000000000000000000000000000000000000A4
:104C10000000000000000F7C1E3E3C3E3C1FF80FD1
:104C2000F007F007E003F007F807F80F7C1E3E3EA0
:104C30001F3C1F7800000000000000000000000082
:104C40000000000000000000000007F80F780F7C53
:104C50001E3C1E3C3C1E3C1E3C1F780FF80FF0070C
:104C6000F007E003E003C003C003C0038007800F28
:104C7000007F000000000000000000000000FF3F77
:104C8000FF3F1F003E007C00F800F001E003C0077A
:104C9000800F001F001E003CFF7FFF7F0000000010
:104CA000000000000000FE01E003C003C003C003D9
:104CB000C003E001E001E001C001C003803F803F8C
:104CC000C003C001E001E001E001C003C003C00374
:104CD000C003E003FE017E000000C001C001C0016E
:104CE000C001C001C001C001C001C001C001C001BC
:104CF000C001C001C001C001C001C001C001C001AC
:104D0000C001C001C001C001C001C0010000C03F1E
:104D1000E003E001E001E001E001C001C003C003E5
:104D2000C001E001FE00FE00E001C001C003C003BD
:104D3000C001E001E001E001E001E003C03F003F0D
:104D40000000000000000000000000000000000063
:104D50000000000000000000073FC77FE773FFF17D
:104D60007EF00000000000000000000000000000D5
:104D70000000000000000000984D00080000002026
:104D80008C00000028010008244E00088C00002040
:104D90003C4F00004401000800000000000000003B
:104DA00000000100000000000001020304010203F2
:104DB000040607080902040608000000070A0000AC
:104DC000622500080B120000CE2C0008101A00000B
:104DD0002A3A000800000000000000000000000067
:104DE0000000000000000000AAAAAAAA000000001B
:104DF00000000000000000000000000000000000B3
:104E000000000000000000000000000000000000A2
:104E10000000000000000000000000000000000092
:044E2000000000008E
:04000005080000ED02
:00000001FF
